{
  "_format": "hh-sol-artifact-1",
  "contractName": "Arnhemia",
  "sourceName": "contracts/Arnhemia.sol",
  "abi": [
    {
      "inputs": [
        {
          "internalType": "string",
          "name": "_baseURI",
          "type": "string"
        },
        {
          "internalType": "string",
          "name": "collectionURI",
          "type": "string"
        }
      ],
      "stateMutability": "nonpayable",
      "type": "constructor"
    },
    {
      "anonymous": false,
      "inputs": [
        {
          "indexed": true,
          "internalType": "address",
          "name": "owner",
          "type": "address"
        },
        {
          "indexed": true,
          "internalType": "address",
          "name": "approved",
          "type": "address"
        },
        {
          "indexed": true,
          "internalType": "uint256",
          "name": "tokenId",
          "type": "uint256"
        }
      ],
      "name": "Approval",
      "type": "event"
    },
    {
      "anonymous": false,
      "inputs": [
        {
          "indexed": true,
          "internalType": "address",
          "name": "owner",
          "type": "address"
        },
        {
          "indexed": true,
          "internalType": "address",
          "name": "operator",
          "type": "address"
        },
        {
          "indexed": false,
          "internalType": "bool",
          "name": "approved",
          "type": "bool"
        }
      ],
      "name": "ApprovalForAll",
      "type": "event"
    },
    {
      "anonymous": false,
      "inputs": [
        {
          "indexed": true,
          "internalType": "address",
          "name": "previousOwner",
          "type": "address"
        },
        {
          "indexed": true,
          "internalType": "address",
          "name": "newOwner",
          "type": "address"
        }
      ],
      "name": "OwnershipTransferred",
      "type": "event"
    },
    {
      "anonymous": false,
      "inputs": [
        {
          "indexed": true,
          "internalType": "address",
          "name": "from",
          "type": "address"
        },
        {
          "indexed": true,
          "internalType": "address",
          "name": "to",
          "type": "address"
        },
        {
          "indexed": true,
          "internalType": "uint256",
          "name": "tokenId",
          "type": "uint256"
        }
      ],
      "name": "Transfer",
      "type": "event"
    },
    {
      "inputs": [],
      "name": "PUBLIC_SALE_PRICE",
      "outputs": [
        {
          "internalType": "uint256",
          "name": "",
          "type": "uint256"
        }
      ],
      "stateMutability": "view",
      "type": "function"
    },
    {
      "inputs": [],
      "name": "WHITELIST_SALE_PRICE",
      "outputs": [
        {
          "internalType": "uint256",
          "name": "",
          "type": "uint256"
        }
      ],
      "stateMutability": "view",
      "type": "function"
    },
    {
      "inputs": [
        {
          "internalType": "address",
          "name": "to",
          "type": "address"
        },
        {
          "internalType": "uint256",
          "name": "tokenId",
          "type": "uint256"
        }
      ],
      "name": "approve",
      "outputs": [],
      "stateMutability": "nonpayable",
      "type": "function"
    },
    {
      "inputs": [
        {
          "internalType": "address",
          "name": "owner",
          "type": "address"
        }
      ],
      "name": "balanceOf",
      "outputs": [
        {
          "internalType": "uint256",
          "name": "",
          "type": "uint256"
        }
      ],
      "stateMutability": "view",
      "type": "function"
    },
    {
      "inputs": [],
      "name": "baseURI",
      "outputs": [
        {
          "internalType": "string",
          "name": "",
          "type": "string"
        }
      ],
      "stateMutability": "view",
      "type": "function"
    },
    {
      "inputs": [
        {
          "internalType": "address",
          "name": "",
          "type": "address"
        }
      ],
      "name": "claimed",
      "outputs": [
        {
          "internalType": "bool",
          "name": "",
          "type": "bool"
        }
      ],
      "stateMutability": "view",
      "type": "function"
    },
    {
      "inputs": [],
      "name": "contractURI",
      "outputs": [
        {
          "internalType": "string",
          "name": "",
          "type": "string"
        }
      ],
      "stateMutability": "view",
      "type": "function"
    },
    {
      "inputs": [
        {
          "internalType": "uint256",
          "name": "tokenId",
          "type": "uint256"
        }
      ],
      "name": "getApproved",
      "outputs": [
        {
          "internalType": "address",
          "name": "",
          "type": "address"
        }
      ],
      "stateMutability": "view",
      "type": "function"
    },
    {
      "inputs": [],
      "name": "giftMerkleRoot",
      "outputs": [
        {
          "internalType": "bytes32",
          "name": "",
          "type": "bytes32"
        }
      ],
      "stateMutability": "view",
      "type": "function"
    },
    {
      "inputs": [],
      "name": "giftMintId",
      "outputs": [
        {
          "internalType": "uint256",
          "name": "",
          "type": "uint256"
        }
      ],
      "stateMutability": "view",
      "type": "function"
    },
    {
      "inputs": [
        {
          "internalType": "address",
          "name": "owner",
          "type": "address"
        },
        {
          "internalType": "address",
          "name": "operator",
          "type": "address"
        }
      ],
      "name": "isApprovedForAll",
      "outputs": [
        {
          "internalType": "bool",
          "name": "",
          "type": "bool"
        }
      ],
      "stateMutability": "view",
      "type": "function"
    },
    {
      "inputs": [],
      "name": "maxGiftMintId",
      "outputs": [
        {
          "internalType": "uint256",
          "name": "",
          "type": "uint256"
        }
      ],
      "stateMutability": "view",
      "type": "function"
    },
    {
      "inputs": [],
      "name": "maxPublicMint",
      "outputs": [
        {
          "internalType": "uint256",
          "name": "",
          "type": "uint256"
        }
      ],
      "stateMutability": "view",
      "type": "function"
    },
    {
      "inputs": [],
      "name": "maxWhitelistId",
      "outputs": [
        {
          "internalType": "uint256",
          "name": "",
          "type": "uint256"
        }
      ],
      "stateMutability": "view",
      "type": "function"
    },
    {
      "inputs": [
        {
          "internalType": "bytes32[]",
          "name": "merkleProof",
          "type": "bytes32[]"
        }
      ],
      "name": "mintGift",
      "outputs": [],
      "stateMutability": "nonpayable",
      "type": "function"
    },
    {
      "inputs": [
        {
          "internalType": "bytes32[]",
          "name": "merkleProof",
          "type": "bytes32[]"
        }
      ],
      "name": "mintWhitelist",
      "outputs": [],
      "stateMutability": "payable",
      "type": "function"
    },
    {
      "inputs": [],
      "name": "name",
      "outputs": [
        {
          "internalType": "string",
          "name": "",
          "type": "string"
        }
      ],
      "stateMutability": "view",
      "type": "function"
    },
    {
      "inputs": [],
      "name": "owner",
      "outputs": [
        {
          "internalType": "address",
          "name": "",
          "type": "address"
        }
      ],
      "stateMutability": "view",
      "type": "function"
    },
    {
      "inputs": [
        {
          "internalType": "uint256",
          "name": "tokenId",
          "type": "uint256"
        }
      ],
      "name": "ownerOf",
      "outputs": [
        {
          "internalType": "address",
          "name": "",
          "type": "address"
        }
      ],
      "stateMutability": "view",
      "type": "function"
    },
    {
      "inputs": [
        {
          "internalType": "uint256",
          "name": "numberOfTokens",
          "type": "uint256"
        }
      ],
      "name": "publicMint",
      "outputs": [],
      "stateMutability": "payable",
      "type": "function"
    },
    {
      "inputs": [],
      "name": "publicMintId",
      "outputs": [
        {
          "internalType": "uint256",
          "name": "",
          "type": "uint256"
        }
      ],
      "stateMutability": "view",
      "type": "function"
    },
    {
      "inputs": [],
      "name": "renounceOwnership",
      "outputs": [],
      "stateMutability": "nonpayable",
      "type": "function"
    },
    {
      "inputs": [
        {
          "internalType": "address",
          "name": "from",
          "type": "address"
        },
        {
          "internalType": "address",
          "name": "to",
          "type": "address"
        },
        {
          "internalType": "uint256",
          "name": "tokenId",
          "type": "uint256"
        }
      ],
      "name": "safeTransferFrom",
      "outputs": [],
      "stateMutability": "nonpayable",
      "type": "function"
    },
    {
      "inputs": [
        {
          "internalType": "address",
          "name": "from",
          "type": "address"
        },
        {
          "internalType": "address",
          "name": "to",
          "type": "address"
        },
        {
          "internalType": "uint256",
          "name": "tokenId",
          "type": "uint256"
        },
        {
          "internalType": "bytes",
          "name": "data",
          "type": "bytes"
        }
      ],
      "name": "safeTransferFrom",
      "outputs": [],
      "stateMutability": "nonpayable",
      "type": "function"
    },
    {
      "inputs": [
        {
          "internalType": "address",
          "name": "operator",
          "type": "address"
        },
        {
          "internalType": "bool",
          "name": "approved",
          "type": "bool"
        }
      ],
      "name": "setApprovalForAll",
      "outputs": [],
      "stateMutability": "nonpayable",
      "type": "function"
    },
    {
      "inputs": [
        {
          "internalType": "string",
          "name": "_baseURI",
          "type": "string"
        }
      ],
      "name": "setBaseURI",
      "outputs": [],
      "stateMutability": "nonpayable",
      "type": "function"
    },
    {
      "inputs": [
        {
          "internalType": "bytes32",
          "name": "merkleRoot",
          "type": "bytes32"
        }
      ],
      "name": "setGiftMerkleRoot",
      "outputs": [],
      "stateMutability": "nonpayable",
      "type": "function"
    },
    {
      "inputs": [
        {
          "internalType": "bytes32",
          "name": "merkleRoot",
          "type": "bytes32"
        }
      ],
      "name": "setWhitelistMerkleRoot",
      "outputs": [],
      "stateMutability": "nonpayable",
      "type": "function"
    },
    {
      "inputs": [
        {
          "internalType": "bytes4",
          "name": "interfaceId",
          "type": "bytes4"
        }
      ],
      "name": "supportsInterface",
      "outputs": [
        {
          "internalType": "bool",
          "name": "",
          "type": "bool"
        }
      ],
      "stateMutability": "view",
      "type": "function"
    },
    {
      "inputs": [],
      "name": "symbol",
      "outputs": [
        {
          "internalType": "string",
          "name": "",
          "type": "string"
        }
      ],
      "stateMutability": "view",
      "type": "function"
    },
    {
      "inputs": [
        {
          "internalType": "uint256",
          "name": "tokenId",
          "type": "uint256"
        }
      ],
      "name": "tokenURI",
      "outputs": [
        {
          "internalType": "string",
          "name": "",
          "type": "string"
        }
      ],
      "stateMutability": "view",
      "type": "function"
    },
    {
      "inputs": [
        {
          "internalType": "address",
          "name": "from",
          "type": "address"
        },
        {
          "internalType": "address",
          "name": "to",
          "type": "address"
        },
        {
          "internalType": "uint256",
          "name": "tokenId",
          "type": "uint256"
        }
      ],
      "name": "transferFrom",
      "outputs": [],
      "stateMutability": "nonpayable",
      "type": "function"
    },
    {
      "inputs": [
        {
          "internalType": "address",
          "name": "newOwner",
          "type": "address"
        }
      ],
      "name": "transferOwnership",
      "outputs": [],
      "stateMutability": "nonpayable",
      "type": "function"
    },
    {
      "inputs": [],
      "name": "whitelistId",
      "outputs": [
        {
          "internalType": "uint256",
          "name": "",
          "type": "uint256"
        }
      ],
      "stateMutability": "view",
      "type": "function"
    },
    {
      "inputs": [],
      "name": "whitelistMerkleRoot",
      "outputs": [
        {
          "internalType": "bytes32",
          "name": "",
          "type": "bytes32"
        }
      ],
      "stateMutability": "view",
      "type": "function"
    },
    {
      "inputs": [],
      "name": "withdraw",
      "outputs": [],
      "stateMutability": "nonpayable",
      "type": "function"
    },
    {
      "inputs": [
        {
          "internalType": "contract IERC20",
          "name": "token",
          "type": "address"
        }
      ],
      "name": "withdrawTokens",
      "outputs": [],
      "stateMutability": "nonpayable",
      "type": "function"
    }
  ],
  "bytecode": "0x60e060405260196080908152506001600b556103e860a0908152506006600c5561177060c0908152506103e9600d553480156200003b57600080fd5b50604051620049e5380380620049e5833981810160405281019062000061919062000456565b6040518060400160405280600881526020017f41726e68656d69610000000000000000000000000000000000000000000000008152506040518060400160405280600381526020017f41524800000000000000000000000000000000000000000000000000000000008152508160009080519060200190620000e592919062000334565b508060019080519060200190620000fe92919062000334565b50505062000121620001156200015360201b60201c565b6200015b60201b60201c565b60016008819055506200013a826200022160201b60201c565b6200014b816200024d60201b60201c565b5050620006bc565b600033905090565b6000600760009054906101000a900473ffffffffffffffffffffffffffffffffffffffff16905081600760006101000a81548173ffffffffffffffffffffffffffffffffffffffff021916908373ffffffffffffffffffffffffffffffffffffffff1602179055508173ffffffffffffffffffffffffffffffffffffffff168173ffffffffffffffffffffffffffffffffffffffff167f8be0079c531659141344cd1fd0a4f28419497f9722a3daafe3b4186f6b6457e060405160405180910390a35050565b620002316200027960201b60201c565b80600a90805190602001906200024992919062000334565b5050565b6200025d6200027960201b60201c565b80600990805190602001906200027592919062000334565b5050565b620002896200015360201b60201c565b73ffffffffffffffffffffffffffffffffffffffff16620002af6200030a60201b60201c565b73ffffffffffffffffffffffffffffffffffffffff161462000308576040517f08c379a0000000000000000000000000000000000000000000000000000000008152600401620002ff90620004f0565b60405180910390fd5b565b6000600760009054906101000a900473ffffffffffffffffffffffffffffffffffffffff16905090565b8280546200034290620005b8565b90600052602060002090601f016020900481019282620003665760008555620003b2565b82601f106200038157805160ff1916838001178555620003b2565b82800160010185558215620003b2579182015b82811115620003b157825182559160200191906001019062000394565b5b509050620003c19190620003c5565b5090565b5b80821115620003e0576000816000905550600101620003c6565b5090565b6000620003fb620003f5846200053b565b62000512565b9050828152602081018484840111156200041457600080fd5b6200042184828562000582565b509392505050565b600082601f8301126200043b57600080fd5b81516200044d848260208601620003e4565b91505092915050565b600080604083850312156200046a57600080fd5b600083015167ffffffffffffffff8111156200048557600080fd5b620004938582860162000429565b925050602083015167ffffffffffffffff811115620004b157600080fd5b620004bf8582860162000429565b9150509250929050565b6000620004d860208362000571565b9150620004e58262000693565b602082019050919050565b600060208201905081810360008301526200050b81620004c9565b9050919050565b60006200051e62000531565b90506200052c8282620005ee565b919050565b6000604051905090565b600067ffffffffffffffff82111562000559576200055862000653565b5b620005648262000682565b9050602081019050919050565b600082825260208201905092915050565b60005b83811015620005a257808201518184015260208101905062000585565b83811115620005b2576000848401525b50505050565b60006002820490506001821680620005d157607f821691505b60208210811415620005e857620005e762000624565b5b50919050565b620005f98262000682565b810181811067ffffffffffffffff821117156200061b576200061a62000653565b5b80604052505050565b7f4e487b7100000000000000000000000000000000000000000000000000000000600052602260045260246000fd5b7f4e487b7100000000000000000000000000000000000000000000000000000000600052604160045260246000fd5b6000601f19601f8301169050919050565b7f4f776e61626c653a2063616c6c6572206973206e6f7420746865206f776e6572600082015250565b60805160a05160c0516142e46200070160003960008181610c1401526116f4015260008181610e81015261171801526000818161132a015261140c01526142e46000f3fe60806040526004361061021a5760003560e01c8063715018a611610123578063bc912e1a116100ab578063d30068a41161006f578063d30068a414610791578063e68be24a146107bc578063e8a3d485146107e7578063e985e9c514610812578063f2fde38b1461084f5761021a565b8063bc912e1a14610698578063bd32fb66146106c3578063c87b56dd146106ec578063c884ef8314610729578063cabadaa0146107665761021a565b806395d89b41116100f257806395d89b41146105c5578063a19829c0146105f0578063a22cb4651461061b578063aa98e0c614610644578063b88d4fde1461066f5761021a565b8063715018a61461052f57806380e95ae114610546578063811dab35146105715780638da5cb5b1461059a5761021a565b80633ba46d46116101a657806349df728c1161017557806349df728c1461043857806355f804b3146104615780636352211e1461048a5780636c0360eb146104c757806370a08231146104f25761021a565b80633ba46d46146103b35780633ccfd60b146103dc57806342842e0e146103f357806344d843811461041c5761021a565b8063095ea7b3116101ed578063095ea7b3146102ef5780630fab61971461031857806323b872dd146103435780632db115441461036c57806330478b67146103885761021a565b806301ffc9a71461021f57806306fdde031461025c57806307e89ec014610287578063081812fc146102b2575b600080fd5b34801561022b57600080fd5b5061024660048036038101906102419190612fc0565b610878565b60405161025391906135fc565b60405180910390f35b34801561026857600080fd5b5061027161095a565b60405161027e9190613632565b60405180910390f35b34801561029357600080fd5b5061029c6109ec565b6040516102a991906138d4565b60405180910390f35b3480156102be57600080fd5b506102d960048036038101906102d4919061307c565b6109f7565b6040516102e6919061356c565b60405180910390f35b3480156102fb57600080fd5b5061031660048036038101906103119190612eed565b610a3d565b005b34801561032457600080fd5b5061032d610b55565b60405161033a91906138d4565b60405180910390f35b34801561034f57600080fd5b5061036a60048036038101906103659190612de7565b610b5b565b005b6103866004803603810190610381919061307c565b610bbb565b005b34801561039457600080fd5b5061039d610cdb565b6040516103aa91906138d4565b60405180910390f35b3480156103bf57600080fd5b506103da60048036038101906103d59190612f97565b610ce1565b005b3480156103e857600080fd5b506103f1610cf3565b005b3480156103ff57600080fd5b5061041a60048036038101906104159190612de7565b610d4a565b005b61043660048036038101906104319190612f29565b610d6a565b005b34801561044457600080fd5b5061045f600480360381019061045a9190613012565b610ffe565b005b34801561046d57600080fd5b506104886004803603810190610483919061303b565b611125565b005b34801561049657600080fd5b506104b160048036038101906104ac919061307c565b611147565b6040516104be919061356c565b60405180910390f35b3480156104d357600080fd5b506104dc6111ce565b6040516104e99190613632565b60405180910390f35b3480156104fe57600080fd5b5061051960048036038101906105149190612d82565b61125c565b60405161052691906138d4565b60405180910390f35b34801561053b57600080fd5b50610544611314565b005b34801561055257600080fd5b5061055b611328565b60405161056891906138d4565b60405180910390f35b34801561057d57600080fd5b5061059860048036038101906105939190612f29565b61134c565b005b3480156105a657600080fd5b506105af6114f9565b6040516105bc919061356c565b60405180910390f35b3480156105d157600080fd5b506105da611523565b6040516105e79190613632565b60405180910390f35b3480156105fc57600080fd5b506106056115b5565b6040516106129190613617565b60405180910390f35b34801561062757600080fd5b50610642600480360381019061063d9190612eb1565b6115bb565b005b34801561065057600080fd5b506106596115d1565b6040516106669190613617565b60405180910390f35b34801561067b57600080fd5b5061069660048036038101906106919190612e36565b6115d7565b005b3480156106a457600080fd5b506106ad611639565b6040516106ba91906138d4565b60405180910390f35b3480156106cf57600080fd5b506106ea60048036038101906106e59190612f97565b611644565b005b3480156106f857600080fd5b50610713600480360381019061070e919061307c565b611656565b6040516107209190613632565b60405180910390f35b34801561073557600080fd5b50610750600480360381019061074b9190612d82565b6116d2565b60405161075d91906135fc565b60405180910390f35b34801561077257600080fd5b5061077b6116f2565b60405161078891906138d4565b60405180910390f35b34801561079d57600080fd5b506107a6611716565b6040516107b391906138d4565b60405180910390f35b3480156107c857600080fd5b506107d161173a565b6040516107de91906138d4565b60405180910390f35b3480156107f357600080fd5b506107fc611740565b6040516108099190613632565b60405180910390f35b34801561081e57600080fd5b5061083960048036038101906108349190612dab565b6117d2565b60405161084691906135fc565b60405180910390f35b34801561085b57600080fd5b5061087660048036038101906108719190612d82565b611866565b005b60007f80ac58cd000000000000000000000000000000000000000000000000000000007bffffffffffffffffffffffffffffffffffffffffffffffffffffffff1916827bffffffffffffffffffffffffffffffffffffffffffffffffffffffff1916148061094357507f5b5e139f000000000000000000000000000000000000000000000000000000007bffffffffffffffffffffffffffffffffffffffffffffffffffffffff1916827bffffffffffffffffffffffffffffffffffffffffffffffffffffffff1916145b806109535750610952826118ea565b5b9050919050565b60606000805461096990613b84565b80601f016020809104026020016040519081016040528092919081815260200182805461099590613b84565b80156109e25780601f106109b7576101008083540402835291602001916109e2565b820191906000526020600020905b8154815290600101906020018083116109c557829003601f168201915b5050505050905090565b66470de4df82000081565b6000610a0282611954565b6004600083815260200190815260200160002060009054906101000a900473ffffffffffffffffffffffffffffffffffffffff169050919050565b6000610a4882611147565b90508073ffffffffffffffffffffffffffffffffffffffff168373ffffffffffffffffffffffffffffffffffffffff161415610ab9576040517f08c379a0000000000000000000000000000000000000000000000000000000008152600401610ab090613854565b60405180910390fd5b8073ffffffffffffffffffffffffffffffffffffffff16610ad861199f565b73ffffffffffffffffffffffffffffffffffffffff161480610b075750610b0681610b0161199f565b6117d2565b5b610b46576040517f08c379a0000000000000000000000000000000000000000000000000000000008152600401610b3d90613874565b60405180910390fd5b610b5083836119a7565b505050565b600d5481565b610b6c610b6661199f565b82611a60565b610bab576040517f08c379a0000000000000000000000000000000000000000000000000000000008152600401610ba290613654565b60405180910390fd5b610bb6838383611af5565b505050565b66470de4df82000081348183610bd19190613a24565b14610c11576040517f08c379a0000000000000000000000000000000000000000000000000000000008152600401610c0890613894565b60405180910390fd5b827f000000000000000000000000000000000000000000000000000000000000000081600d54610c4191906139ce565b1115610c82576040517f08c379a0000000000000000000000000000000000000000000000000000000008152600401610c7990613734565b60405180910390fd5b610c8a611def565b60005b84811015610ccc57610ca133600d54611e3f565b600d6000815480929190610cb490613be7565b91905055508080610cc490613be7565b915050610c8d565b50610cd561205d565b50505050565b600b5481565b610ce9612067565b80600e8190555050565b610cfb612067565b60004790503373ffffffffffffffffffffffffffffffffffffffff166108fc829081150290604051600060405180830381858888f19350505050158015610d46573d6000803e3d6000fd5b5050565b610d65838383604051806020016040528060008152506115d7565b505050565b8181600f54610de1838380806020026020016040519081016040528093929190818152602001838360200280828437600081840152601f19601f820116905080830192505050505050508233604051602001610dc69190613522565b604051602081830303815290604052805190602001206120e5565b610e20576040517f08c379a0000000000000000000000000000000000000000000000000000000008152600401610e1790613754565b60405180910390fd5b662386f26fc100006001348183610e379190613a24565b14610e77576040517f08c379a0000000000000000000000000000000000000000000000000000000008152600401610e6e90613894565b60405180910390fd5b610e7f611def565b7f0000000000000000000000000000000000000000000000000000000000000000600c541115610ee4576040517f08c379a0000000000000000000000000000000000000000000000000000000008152600401610edb90613774565b60405180910390fd5b601060003373ffffffffffffffffffffffffffffffffffffffff1673ffffffffffffffffffffffffffffffffffffffff16815260200190815260200160002060009054906101000a900460ff1615610f71576040517f08c379a0000000000000000000000000000000000000000000000000000000008152600401610f6890613794565b60405180910390fd5b610f7d33600c54611e3f565b600c6000815480929190610f9090613be7565b91905055506001601060003373ffffffffffffffffffffffffffffffffffffffff1673ffffffffffffffffffffffffffffffffffffffff16815260200190815260200160002060006101000a81548160ff021916908315150217905550610ff561205d565b50505050505050565b611006612067565b60008173ffffffffffffffffffffffffffffffffffffffff166370a08231306040518263ffffffff1660e01b8152600401611041919061356c565b60206040518083038186803b15801561105957600080fd5b505afa15801561106d573d6000803e3d6000fd5b505050506040513d601f19601f8201168201806040525081019061109191906130a5565b90508173ffffffffffffffffffffffffffffffffffffffff1663a9059cbb33836040518363ffffffff1660e01b81526004016110ce9291906135d3565b602060405180830381600087803b1580156110e857600080fd5b505af11580156110fc573d6000803e3d6000fd5b505050506040513d601f19601f820116820180604052508101906111209190612f6e565b505050565b61112d612067565b80600a9080519060200190611143929190612b08565b5050565b600080611153836120fc565b9050600073ffffffffffffffffffffffffffffffffffffffff168173ffffffffffffffffffffffffffffffffffffffff1614156111c5576040517f08c379a00000000000000000000000000000000000000000000000000000000081526004016111bc90613834565b60405180910390fd5b80915050919050565b600a80546111db90613b84565b80601f016020809104026020016040519081016040528092919081815260200182805461120790613b84565b80156112545780601f1061122957610100808354040283529160200191611254565b820191906000526020600020905b81548152906001019060200180831161123757829003601f168201915b505050505081565b60008073ffffffffffffffffffffffffffffffffffffffff168273ffffffffffffffffffffffffffffffffffffffff1614156112cd576040517f08c379a00000000000000000000000000000000000000000000000000000000081526004016112c4906137b4565b60405180910390fd5b600360008373ffffffffffffffffffffffffffffffffffffffff1673ffffffffffffffffffffffffffffffffffffffff168152602001908152602001600020549050919050565b61131c612067565b6113266000612139565b565b7f000000000000000000000000000000000000000000000000000000000000000081565b8181600e546113c3838380806020026020016040519081016040528093929190818152602001838360200280828437600081840152601f19601f8201169050808301925050505050505082336040516020016113a89190613522565b604051602081830303815290604052805190602001206120e5565b611402576040517f08c379a00000000000000000000000000000000000000000000000000000000081526004016113f990613754565b60405180910390fd5b61140a611def565b7f0000000000000000000000000000000000000000000000000000000000000000600b54111561143957600080fd5b601060003373ffffffffffffffffffffffffffffffffffffffff1673ffffffffffffffffffffffffffffffffffffffff16815260200190815260200160002060009054906101000a900460ff16156114c6576040517f08c379a00000000000000000000000000000000000000000000000000000000081526004016114bd90613794565b60405180910390fd5b6114d233600b54611e3f565b600b60008154809291906114e590613be7565b91905055506114f261205d565b5050505050565b6000600760009054906101000a900473ffffffffffffffffffffffffffffffffffffffff16905090565b60606001805461153290613b84565b80601f016020809104026020016040519081016040528092919081815260200182805461155e90613b84565b80156115ab5780601f10611580576101008083540402835291602001916115ab565b820191906000526020600020905b81548152906001019060200180831161158e57829003601f168201915b5050505050905090565b600e5481565b6115cd6115c661199f565b83836121ff565b5050565b600f5481565b6115e86115e261199f565b83611a60565b611627576040517f08c379a000000000000000000000000000000000000000000000000000000000815260040161161e90613654565b60405180910390fd5b6116338484848461236c565b50505050565b662386f26fc1000081565b61164c612067565b80600f8190555050565b6060611661826123c8565b6116a0576040517f08c379a0000000000000000000000000000000000000000000000000000000008152600401611697906137f4565b60405180910390fd5b600a6116ab83612409565b6040516020016116bc92919061353d565b6040516020818303038152906040529050919050565b60106020528060005260406000206000915054906101000a900460ff1681565b7f000000000000000000000000000000000000000000000000000000000000000081565b7f000000000000000000000000000000000000000000000000000000000000000081565b600c5481565b60606009805461174f90613b84565b80601f016020809104026020016040519081016040528092919081815260200182805461177b90613b84565b80156117c85780601f1061179d576101008083540402835291602001916117c8565b820191906000526020600020905b8154815290600101906020018083116117ab57829003601f168201915b5050505050905090565b6000600560008473ffffffffffffffffffffffffffffffffffffffff1673ffffffffffffffffffffffffffffffffffffffff16815260200190815260200160002060008373ffffffffffffffffffffffffffffffffffffffff1673ffffffffffffffffffffffffffffffffffffffff16815260200190815260200160002060009054906101000a900460ff16905092915050565b61186e612067565b600073ffffffffffffffffffffffffffffffffffffffff168173ffffffffffffffffffffffffffffffffffffffff1614156118de576040517f08c379a00000000000000000000000000000000000000000000000000000000081526004016118d590613694565b60405180910390fd5b6118e781612139565b50565b60007f01ffc9a7000000000000000000000000000000000000000000000000000000007bffffffffffffffffffffffffffffffffffffffffffffffffffffffff1916827bffffffffffffffffffffffffffffffffffffffffffffffffffffffff1916149050919050565b61195d816123c8565b61199c576040517f08c379a000000000000000000000000000000000000000000000000000000000815260040161199390613834565b60405180910390fd5b50565b600033905090565b816004600083815260200190815260200160002060006101000a81548173ffffffffffffffffffffffffffffffffffffffff021916908373ffffffffffffffffffffffffffffffffffffffff160217905550808273ffffffffffffffffffffffffffffffffffffffff16611a1a83611147565b73ffffffffffffffffffffffffffffffffffffffff167f8c5be1e5ebec7d5bd14f71427d1e84f3dd0314c0f7b2291e5b200ac8c7c3b92560405160405180910390a45050565b600080611a6c83611147565b90508073ffffffffffffffffffffffffffffffffffffffff168473ffffffffffffffffffffffffffffffffffffffff161480611aae5750611aad81856117d2565b5b80611aec57508373ffffffffffffffffffffffffffffffffffffffff16611ad4846109f7565b73ffffffffffffffffffffffffffffffffffffffff16145b91505092915050565b8273ffffffffffffffffffffffffffffffffffffffff16611b1582611147565b73ffffffffffffffffffffffffffffffffffffffff1614611b6b576040517f08c379a0000000000000000000000000000000000000000000000000000000008152600401611b62906136b4565b60405180910390fd5b600073ffffffffffffffffffffffffffffffffffffffff168273ffffffffffffffffffffffffffffffffffffffff161415611bdb576040517f08c379a0000000000000000000000000000000000000000000000000000000008152600401611bd2906136f4565b60405180910390fd5b611be8838383600161252d565b8273ffffffffffffffffffffffffffffffffffffffff16611c0882611147565b73ffffffffffffffffffffffffffffffffffffffff1614611c5e576040517f08c379a0000000000000000000000000000000000000000000000000000000008152600401611c55906136b4565b60405180910390fd5b6004600082815260200190815260200160002060006101000a81549073ffffffffffffffffffffffffffffffffffffffff02191690556001600360008573ffffffffffffffffffffffffffffffffffffffff1673ffffffffffffffffffffffffffffffffffffffff168152602001908152602001600020600082825403925050819055506001600360008473ffffffffffffffffffffffffffffffffffffffff1673ffffffffffffffffffffffffffffffffffffffff16815260200190815260200160002060008282540192505081905550816002600083815260200190815260200160002060006101000a81548173ffffffffffffffffffffffffffffffffffffffff021916908373ffffffffffffffffffffffffffffffffffffffff160217905550808273ffffffffffffffffffffffffffffffffffffffff168473ffffffffffffffffffffffffffffffffffffffff167fddf252ad1be2c89b69c2b068fc378daa952ba7f163c4a11628f55a4df523b3ef60405160405180910390a4611dea8383836001612653565b505050565b60026008541415611e35576040517f08c379a0000000000000000000000000000000000000000000000000000000008152600401611e2c906138b4565b60405180910390fd5b6002600881905550565b600073ffffffffffffffffffffffffffffffffffffffff168273ffffffffffffffffffffffffffffffffffffffff161415611eaf576040517f08c379a0000000000000000000000000000000000000000000000000000000008152600401611ea6906137d4565b60405180910390fd5b611eb8816123c8565b15611ef8576040517f08c379a0000000000000000000000000000000000000000000000000000000008152600401611eef906136d4565b60405180910390fd5b611f0660008383600161252d565b611f0f816123c8565b15611f4f576040517f08c379a0000000000000000000000000000000000000000000000000000000008152600401611f46906136d4565b60405180910390fd5b6001600360008473ffffffffffffffffffffffffffffffffffffffff1673ffffffffffffffffffffffffffffffffffffffff16815260200190815260200160002060008282540192505081905550816002600083815260200190815260200160002060006101000a81548173ffffffffffffffffffffffffffffffffffffffff021916908373ffffffffffffffffffffffffffffffffffffffff160217905550808273ffffffffffffffffffffffffffffffffffffffff16600073ffffffffffffffffffffffffffffffffffffffff167fddf252ad1be2c89b69c2b068fc378daa952ba7f163c4a11628f55a4df523b3ef60405160405180910390a4612059600083836001612653565b5050565b6001600881905550565b61206f61199f565b73ffffffffffffffffffffffffffffffffffffffff1661208d6114f9565b73ffffffffffffffffffffffffffffffffffffffff16146120e3576040517f08c379a00000000000000000000000000000000000000000000000000000000081526004016120da90613814565b60405180910390fd5b565b6000826120f28584612659565b1490509392505050565b60006002600083815260200190815260200160002060009054906101000a900473ffffffffffffffffffffffffffffffffffffffff169050919050565b6000600760009054906101000a900473ffffffffffffffffffffffffffffffffffffffff16905081600760006101000a81548173ffffffffffffffffffffffffffffffffffffffff021916908373ffffffffffffffffffffffffffffffffffffffff1602179055508173ffffffffffffffffffffffffffffffffffffffff168173ffffffffffffffffffffffffffffffffffffffff167f8be0079c531659141344cd1fd0a4f28419497f9722a3daafe3b4186f6b6457e060405160405180910390a35050565b8173ffffffffffffffffffffffffffffffffffffffff168373ffffffffffffffffffffffffffffffffffffffff16141561226e576040517f08c379a000000000000000000000000000000000000000000000000000000000815260040161226590613714565b60405180910390fd5b80600560008573ffffffffffffffffffffffffffffffffffffffff1673ffffffffffffffffffffffffffffffffffffffff16815260200190815260200160002060008473ffffffffffffffffffffffffffffffffffffffff1673ffffffffffffffffffffffffffffffffffffffff16815260200190815260200160002060006101000a81548160ff0219169083151502179055508173ffffffffffffffffffffffffffffffffffffffff168373ffffffffffffffffffffffffffffffffffffffff167f17307eab39ab6107e8899845ad3d59bd9653f200f220920489ca2b5937696c318360405161235f91906135fc565b60405180910390a3505050565b612377848484611af5565b612383848484846126d5565b6123c2576040517f08c379a00000000000000000000000000000000000000000000000000000000081526004016123b990613674565b60405180910390fd5b50505050565b60008073ffffffffffffffffffffffffffffffffffffffff166123ea836120fc565b73ffffffffffffffffffffffffffffffffffffffff1614159050919050565b6060600060016124188461286c565b01905060008167ffffffffffffffff81111561245d577f4e487b7100000000000000000000000000000000000000000000000000000000600052604160045260246000fd5b6040519080825280601f01601f19166020018201604052801561248f5781602001600182028036833780820191505090505b509050600082602001820190505b600115612522578080600190039150507f3031323334353637383961626364656600000000000000000000000000000000600a86061a8153600a858161250c577f4e487b7100000000000000000000000000000000000000000000000000000000600052601260045260246000fd5b049450600085141561251d57612522565b61249d565b819350505050919050565b600181111561264d57600073ffffffffffffffffffffffffffffffffffffffff168473ffffffffffffffffffffffffffffffffffffffff16146125c15780600360008673ffffffffffffffffffffffffffffffffffffffff1673ffffffffffffffffffffffffffffffffffffffff16815260200190815260200160002060008282546125b99190613a7e565b925050819055505b600073ffffffffffffffffffffffffffffffffffffffff168373ffffffffffffffffffffffffffffffffffffffff161461264c5780600360008573ffffffffffffffffffffffffffffffffffffffff1673ffffffffffffffffffffffffffffffffffffffff168152602001908152602001600020600082825461264491906139ce565b925050819055505b5b50505050565b50505050565b60008082905060005b84518110156126ca576126b5828683815181106126a8577f4e487b7100000000000000000000000000000000000000000000000000000000600052603260045260246000fd5b6020026020010151612aa3565b915080806126c290613be7565b915050612662565b508091505092915050565b60006126f68473ffffffffffffffffffffffffffffffffffffffff16612ace565b1561285f578373ffffffffffffffffffffffffffffffffffffffff1663150b7a0261271f61199f565b8786866040518563ffffffff1660e01b81526004016127419493929190613587565b602060405180830381600087803b15801561275b57600080fd5b505af192505050801561278c57506040513d601f19601f820116820180604052508101906127899190612fe9565b60015b61280f573d80600081146127bc576040519150601f19603f3d011682016040523d82523d6000602084013e6127c1565b606091505b50600081511415612807576040517f08c379a00000000000000000000000000000000000000000000000000000000081526004016127fe90613674565b60405180910390fd5b805181602001fd5b63150b7a0260e01b7bffffffffffffffffffffffffffffffffffffffffffffffffffffffff1916817bffffffffffffffffffffffffffffffffffffffffffffffffffffffff191614915050612864565b600190505b949350505050565b600080600090507a184f03e93ff9f4daa797ed6e38ed64bf6a1f01000000000000000083106128f0577a184f03e93ff9f4daa797ed6e38ed64bf6a1f01000000000000000083816128e6577f4e487b7100000000000000000000000000000000000000000000000000000000600052601260045260246000fd5b0492506040810190505b6d04ee2d6d415b85acef81000000008310612953576d04ee2d6d415b85acef81000000008381612949577f4e487b7100000000000000000000000000000000000000000000000000000000600052601260045260246000fd5b0492506020810190505b662386f26fc1000083106129a857662386f26fc10000838161299e577f4e487b7100000000000000000000000000000000000000000000000000000000600052601260045260246000fd5b0492506010810190505b6305f5e10083106129f7576305f5e10083816129ed577f4e487b7100000000000000000000000000000000000000000000000000000000600052601260045260246000fd5b0492506008810190505b6127108310612a42576127108381612a38577f4e487b7100000000000000000000000000000000000000000000000000000000600052601260045260246000fd5b0492506004810190505b60648310612a8b5760648381612a81577f4e487b7100000000000000000000000000000000000000000000000000000000600052601260045260246000fd5b0492506002810190505b600a8310612a9a576001810190505b80915050919050565b6000818310612abb57612ab68284612af1565b612ac6565b612ac58383612af1565b5b905092915050565b6000808273ffffffffffffffffffffffffffffffffffffffff163b119050919050565b600082600052816020526040600020905092915050565b828054612b1490613b84565b90600052602060002090601f016020900481019282612b365760008555612b7d565b82601f10612b4f57805160ff1916838001178555612b7d565b82800160010185558215612b7d579182015b82811115612b7c578251825591602001919060010190612b61565b5b509050612b8a9190612b8e565b5090565b5b80821115612ba7576000816000905550600101612b8f565b5090565b6000612bbe612bb984613914565b6138ef565b905082815260208101848484011115612bd657600080fd5b612be1848285613b42565b509392505050565b6000612bfc612bf784613945565b6138ef565b905082815260208101848484011115612c1457600080fd5b612c1f848285613b42565b509392505050565b600081359050612c3681614224565b92915050565b60008083601f840112612c4e57600080fd5b8235905067ffffffffffffffff811115612c6757600080fd5b602083019150836020820283011115612c7f57600080fd5b9250929050565b600081359050612c958161423b565b92915050565b600081519050612caa8161423b565b92915050565b600081359050612cbf81614252565b92915050565b600081359050612cd481614269565b92915050565b600081519050612ce981614269565b92915050565b600082601f830112612d0057600080fd5b8135612d10848260208601612bab565b91505092915050565b600081359050612d2881614280565b92915050565b600082601f830112612d3f57600080fd5b8135612d4f848260208601612be9565b91505092915050565b600081359050612d6781614297565b92915050565b600081519050612d7c81614297565b92915050565b600060208284031215612d9457600080fd5b6000612da284828501612c27565b91505092915050565b60008060408385031215612dbe57600080fd5b6000612dcc85828601612c27565b9250506020612ddd85828601612c27565b9150509250929050565b600080600060608486031215612dfc57600080fd5b6000612e0a86828701612c27565b9350506020612e1b86828701612c27565b9250506040612e2c86828701612d58565b9150509250925092565b60008060008060808587031215612e4c57600080fd5b6000612e5a87828801612c27565b9450506020612e6b87828801612c27565b9350506040612e7c87828801612d58565b925050606085013567ffffffffffffffff811115612e9957600080fd5b612ea587828801612cef565b91505092959194509250565b60008060408385031215612ec457600080fd5b6000612ed285828601612c27565b9250506020612ee385828601612c86565b9150509250929050565b60008060408385031215612f0057600080fd5b6000612f0e85828601612c27565b9250506020612f1f85828601612d58565b9150509250929050565b60008060208385031215612f3c57600080fd5b600083013567ffffffffffffffff811115612f5657600080fd5b612f6285828601612c3c565b92509250509250929050565b600060208284031215612f8057600080fd5b6000612f8e84828501612c9b565b91505092915050565b600060208284031215612fa957600080fd5b6000612fb784828501612cb0565b91505092915050565b600060208284031215612fd257600080fd5b6000612fe084828501612cc5565b91505092915050565b600060208284031215612ffb57600080fd5b600061300984828501612cda565b91505092915050565b60006020828403121561302457600080fd5b600061303284828501612d19565b91505092915050565b60006020828403121561304d57600080fd5b600082013567ffffffffffffffff81111561306757600080fd5b61307384828501612d2e565b91505092915050565b60006020828403121561308e57600080fd5b600061309c84828501612d58565b91505092915050565b6000602082840312156130b757600080fd5b60006130c584828501612d6d565b91505092915050565b6130d781613ab2565b82525050565b6130ee6130e982613ab2565b613c30565b82525050565b6130fd81613ac4565b82525050565b61310c81613ad0565b82525050565b600061311d8261398b565b61312781856139a1565b9350613137818560208601613b51565b61314081613ce1565b840191505092915050565b600061315682613996565b61316081856139b2565b9350613170818560208601613b51565b61317981613ce1565b840191505092915050565b600061318f82613996565b61319981856139c3565b93506131a9818560208601613b51565b80840191505092915050565b600081546131c281613b84565b6131cc81866139c3565b945060018216600081146131e757600181146131f85761322b565b60ff1983168652818601935061322b565b61320185613976565b60005b8381101561322357815481890152600182019150602081019050613204565b838801955050505b50505092915050565b6000613241602d836139b2565b915061324c82613cff565b604082019050919050565b60006132646032836139b2565b915061326f82613d4e565b604082019050919050565b60006132876026836139b2565b915061329282613d9d565b604082019050919050565b60006132aa6025836139b2565b91506132b582613dec565b604082019050919050565b60006132cd601c836139b2565b91506132d882613e3b565b602082019050919050565b60006132f06024836139b2565b91506132fb82613e64565b604082019050919050565b60006133136019836139b2565b915061331e82613eb3565b602082019050919050565b60006133366023836139b2565b915061334182613edc565b604082019050919050565b6000613359601e836139b2565b915061336482613f2b565b602082019050919050565b600061337c6028836139b2565b915061338782613f54565b604082019050919050565b600061339f6025836139b2565b91506133aa82613fa3565b604082019050919050565b60006133c26029836139b2565b91506133cd82613ff2565b604082019050919050565b60006133e56020836139b2565b91506133f082614041565b602082019050919050565b6000613408602b836139b2565b91506134138261406a565b604082019050919050565b600061342b6005836139c3565b9150613436826140b9565b600582019050919050565b600061344e6020836139b2565b9150613459826140e2565b602082019050919050565b60006134716018836139b2565b915061347c8261410b565b602082019050919050565b60006134946021836139b2565b915061349f82614134565b604082019050919050565b60006134b7603d836139b2565b91506134c282614183565b604082019050919050565b60006134da6018836139b2565b91506134e5826141d2565b602082019050919050565b60006134fd601f836139b2565b9150613508826141fb565b602082019050919050565b61351c81613b38565b82525050565b600061352e82846130dd565b60148201915081905092915050565b600061354982856131b5565b91506135558284613184565b91506135608261341e565b91508190509392505050565b600060208201905061358160008301846130ce565b92915050565b600060808201905061359c60008301876130ce565b6135a960208301866130ce565b6135b66040830185613513565b81810360608301526135c88184613112565b905095945050505050565b60006040820190506135e860008301856130ce565b6135f56020830184613513565b9392505050565b600060208201905061361160008301846130f4565b92915050565b600060208201905061362c6000830184613103565b92915050565b6000602082019050818103600083015261364c818461314b565b905092915050565b6000602082019050818103600083015261366d81613234565b9050919050565b6000602082019050818103600083015261368d81613257565b9050919050565b600060208201905081810360008301526136ad8161327a565b9050919050565b600060208201905081810360008301526136cd8161329d565b9050919050565b600060208201905081810360008301526136ed816132c0565b9050919050565b6000602082019050818103600083015261370d816132e3565b9050919050565b6000602082019050818103600083015261372d81613306565b9050919050565b6000602082019050818103600083015261374d81613329565b9050919050565b6000602082019050818103600083015261376d8161334c565b9050919050565b6000602082019050818103600083015261378d8161336f565b9050919050565b600060208201905081810360008301526137ad81613392565b9050919050565b600060208201905081810360008301526137cd816133b5565b9050919050565b600060208201905081810360008301526137ed816133d8565b9050919050565b6000602082019050818103600083015261380d816133fb565b9050919050565b6000602082019050818103600083015261382d81613441565b9050919050565b6000602082019050818103600083015261384d81613464565b9050919050565b6000602082019050818103600083015261386d81613487565b9050919050565b6000602082019050818103600083015261388d816134aa565b9050919050565b600060208201905081810360008301526138ad816134cd565b9050919050565b600060208201905081810360008301526138cd816134f0565b9050919050565b60006020820190506138e96000830184613513565b92915050565b60006138f961390a565b90506139058282613bb6565b919050565b6000604051905090565b600067ffffffffffffffff82111561392f5761392e613cb2565b5b61393882613ce1565b9050602081019050919050565b600067ffffffffffffffff8211156139605761395f613cb2565b5b61396982613ce1565b9050602081019050919050565b60008190508160005260206000209050919050565b600081519050919050565b600081519050919050565b600082825260208201905092915050565b600082825260208201905092915050565b600081905092915050565b60006139d982613b38565b91506139e483613b38565b9250827fffffffffffffffffffffffffffffffffffffffffffffffffffffffffffffffff03821115613a1957613a18613c54565b5b828201905092915050565b6000613a2f82613b38565b9150613a3a83613b38565b9250817fffffffffffffffffffffffffffffffffffffffffffffffffffffffffffffffff0483118215151615613a7357613a72613c54565b5b828202905092915050565b6000613a8982613b38565b9150613a9483613b38565b925082821015613aa757613aa6613c54565b5b828203905092915050565b6000613abd82613b18565b9050919050565b60008115159050919050565b6000819050919050565b60007fffffffff0000000000000000000000000000000000000000000000000000000082169050919050565b6000613b1182613ab2565b9050919050565b600073ffffffffffffffffffffffffffffffffffffffff82169050919050565b6000819050919050565b82818337600083830152505050565b60005b83811015613b6f578082015181840152602081019050613b54565b83811115613b7e576000848401525b50505050565b60006002820490506001821680613b9c57607f821691505b60208210811415613bb057613baf613c83565b5b50919050565b613bbf82613ce1565b810181811067ffffffffffffffff82111715613bde57613bdd613cb2565b5b80604052505050565b6000613bf282613b38565b91507fffffffffffffffffffffffffffffffffffffffffffffffffffffffffffffffff821415613c2557613c24613c54565b5b600182019050919050565b6000613c3b82613c42565b9050919050565b6000613c4d82613cf2565b9050919050565b7f4e487b7100000000000000000000000000000000000000000000000000000000600052601160045260246000fd5b7f4e487b7100000000000000000000000000000000000000000000000000000000600052602260045260246000fd5b7f4e487b7100000000000000000000000000000000000000000000000000000000600052604160045260246000fd5b6000601f19601f8301169050919050565b60008160601b9050919050565b7f4552433732313a2063616c6c6572206973206e6f7420746f6b656e206f776e6560008201527f72206f7220617070726f76656400000000000000000000000000000000000000602082015250565b7f4552433732313a207472616e7366657220746f206e6f6e20455243373231526560008201527f63656976657220696d706c656d656e7465720000000000000000000000000000602082015250565b7f4f776e61626c653a206e6577206f776e657220697320746865207a65726f206160008201527f6464726573730000000000000000000000000000000000000000000000000000602082015250565b7f4552433732313a207472616e736665722066726f6d20696e636f72726563742060008201527f6f776e6572000000000000000000000000000000000000000000000000000000602082015250565b7f4552433732313a20746f6b656e20616c7265616479206d696e74656400000000600082015250565b7f4552433732313a207472616e7366657220746f20746865207a65726f2061646460008201527f7265737300000000000000000000000000000000000000000000000000000000602082015250565b7f4552433732313a20617070726f766520746f2063616c6c657200000000000000600082015250565b7f4e6f7420656e6f75676820746f6b656e732072656d61696e696e6720746f206d60008201527f696e740000000000000000000000000000000000000000000000000000000000602082015250565b7f4164647265737320646f6573206e6f7420657869737420696e206c6973740000600082015250565b7f6d696e74656420746865206d6178696d756d2023206f662077686974656c697360008201527f7420746f6b656e73000000000000000000000000000000000000000000000000602082015250565b7f4e465420697320616c726561647920636c61696d65642062792074686973207760008201527f616c6c6574000000000000000000000000000000000000000000000000000000602082015250565b7f4552433732313a2061646472657373207a65726f206973206e6f74206120766160008201527f6c6964206f776e65720000000000000000000000000000000000000000000000602082015250565b7f4552433732313a206d696e7420746f20746865207a65726f2061646472657373600082015250565b7f4552433732314d657461646174613a20717565727920666f72206e6f6e65786960008201527f7374656e7420746f6b656e000000000000000000000000000000000000000000602082015250565b7f2e6a736f6e000000000000000000000000000000000000000000000000000000600082015250565b7f4f776e61626c653a2063616c6c6572206973206e6f7420746865206f776e6572600082015250565b7f4552433732313a20696e76616c696420746f6b656e2049440000000000000000600082015250565b7f4552433732313a20617070726f76616c20746f2063757272656e74206f776e6560008201527f7200000000000000000000000000000000000000000000000000000000000000602082015250565b7f4552433732313a20617070726f76652063616c6c6572206973206e6f7420746f60008201527f6b656e206f776e6572206f7220617070726f76656420666f7220616c6c000000602082015250565b7f496e636f7272656374204554482076616c75652073656e740000000000000000600082015250565b7f5265656e7472616e637947756172643a207265656e7472616e742063616c6c00600082015250565b61422d81613ab2565b811461423857600080fd5b50565b61424481613ac4565b811461424f57600080fd5b50565b61425b81613ad0565b811461426657600080fd5b50565b61427281613ada565b811461427d57600080fd5b50565b61428981613b06565b811461429457600080fd5b50565b6142a081613b38565b81146142ab57600080fd5b5056fea2646970667358221220d33ae7c5d96056f83b7e8c7590fda78721d8615148f2e3dd9b81a11d420e831b64736f6c63430008010033",
  "linkReferences": {},
  "deployedLinkReferences": {}
}